:020000020000FC
:020004001CC01E
:1000080033C004E00EBF0FE50DBF002700930002C8
:100018000093010200930202009303020FEF0ABB50
:1000280003E000270AE005BF00EC0BBF0027789427
:100038000E943800FDCF32E00F930FB70F93A0E076
:10004800B2E01C9113951A3051F411271D931C919D
:100058001395163021F411271D933A9591F71C93A7
:100068000F910FBF0F911895EF93FF930F930FB751
:100078000F93F2E0E0E020810E9449002BBB0F9132
:100088000FBF0F91FF91EF911895EF93FF93F2E057
:0C009800E4E0E20F2491FF91EF91089545
:0E0200000A060A063F065B4F666D7D07FF6724
:00000001FF
